:100000000C947B000C94A3000C94A3000C94A3000C
:100010000C94A3000C94A3000C94A3000C94B404BF
:100020000C94A3000C94A3000C94A3000C94A300C4
:100030000C94A3000C94A3000C94A3000C94A300B4
:100040000C9468050C94A3000C9436050C941005D0
:100050000C94A3000C94A3000C94A3000C94A30094
:100060000C94A3000C94A3000000000024002700BF
:100070002A000000000023002600290000000008DC
:10008000000201000003040700000000000000005F
:10009000010204081020408001020408102001021F
:1000A0000408102000000000250028002B00040494
:1000B0000404040404040202020202020303030310
:1000C0000303025468652073797374656D20636F50
:1000D000756C64206E6F742061626C6520746F2093
:1000E000726561642066726F6D2073656E736F72E6
:1000F0000000B205BF0811241FBECFEFD8E0DEBF5D
:10010000CDBF22E0A2ECB1E001C01D92A939B20737
:10011000E1F711E0A0E0B1E0E2EDFAE102C0059004
:100120000D92A23CB107D9F710E0CAE7D0E004C0B5
:100130002197FE010E94640BC937D107C9F70E94BD
:10014000EE050C945C0D0C940000AF92BF92CF9220
:10015000DF92EF92FF920F931F93CF93DF936C0187
:100160007B018B01040F151FEB015E01AE18BF0868
:10017000C017D10759F06991D601ED91FC9101901A
:10018000F081E02DC6010995892B79F7C501DF9132
:10019000CF911F910F91FF90EF90DF90CF90BF9084
:1001A000AF900895FC01538D448D252F30E0842FAE
:1001B00090E0821B930B541710F0CF96089501978F
:1001C0000895FC01918D828D981761F0A28DAE0F7C
:1001D000BF2FB11D5D968C91928D9F5F9F73928F03
:1001E00090E008958FEF9FEF0895FC01918D828D2F
:1001F000981731F0828DE80FF11D858D90E00895FC
:100200008FEF9FEF0895FC01918D228D892F90E053
:10021000805C9F4F821B91098F739927089580EE10
:1002200091E00E94030121E0892B09F420E0822F54
:10023000089580E090E0892B29F00E940F01811140
:100240000C9400000895FC01A48DA80FB92FB11DD6
:10025000A35ABF4F2C91848D90E001968F739927FC
:10026000848FA689B7892C93A089B1898C918370DA
:1002700080648C93938D848D981306C00288F389D3
:10028000E02D80818F7D80830895EF92FF920F9300
:100290001F93CF93DF93EC0181E0888F9B8D8C8D32
:1002A00098131AC0E889F989808185FF15C09FB726
:1002B000F894EE89FF896083E889F98980818370E9
:1002C000806480839FBF81E090E0DF91CF911F9198
:1002D0000F91FF90EF900895F62E0B8D10E00F5FB9
:1002E0001F4F0F731127E02E8C8D8E110CC00FB68F
:1002F00007FCFACFE889F989808185FFF5CFCE0127
:100300000E942301F1CFEB8DEC0FFD2FF11DE35A7D
:10031000FF4FF0829FB7F8940B8FEA89FB898081A9
:100320008062CFCFCF93DF93EC01888D8823B9F023
:10033000AA89BB89E889F9898C9185FD03C08081F0
:1003400086FD0DC00FB607FCF7CF8C9185FFF2CF6D
:10035000808185FFEDCFCE010E942301E9CFDF919F
:10036000CF910895833081F028F4813099F0823064
:10037000A9F008958730A9F08830C9F08430B1F42D
:10038000809180008F7D03C0809180008F77809363
:100390008000089584B58F7784BD089584B58F7DDE
:1003A000FBCF8091B0008F778093B000089580914B
:1003B000B0008F7DF9CFCF93DF93282F30E0F90184
:1003C000E458FF4F8491F901E057FF4FD491F901B0
:1003D000E255FF4FC491CC23A1F081110E94B201DC
:1003E000EC2FF0E0EE0FFF1FEE58FF4FA591B491F8
:1003F000EC91ED2381E090E009F480E0DF91CF9172
:10040000089580E090E0FACF1F93CF93DF93282FD9
:1004100030E0F901E458FF4F8491F901E057FF4FB4
:10042000D491F901E255FF4FC491CC23A9F0162FC6
:1004300081110E94B201EC2FF0E0EE0FFF1FEC558E
:10044000FF4FA591B4918FB7F894EC91111108C0AA
:10045000D095DE23DC938FBFDF91CF911F9108955C
:10046000DE2BF8CF9091000189130BC0E2ECF0E095
:10047000E4919FEF90930001E13049F028F0E230E1
:1004800061F060E00C94040210926E00FACF90913B
:100490006F009D7F90936F00F4CF909170009D7FCF
:1004A0009093700091E09093B0009091B100987F8C
:1004B00094609093B1001092B300E3CFCF93DF9399
:1004C00090E0FC01E057FF4F249182559F4FFC01C3
:1004D00084918823D1F090E0880F991FFC01E8599E
:1004E000FF4FA591B491FC01EC55FF4FC591D491FC
:1004F00061110EC09FB7F8948C91E22FE0958E2386
:100500008C932881E223E8839FBFDF91CF910895E8
:100510008FB7F894EC91E22BEC938FBFF6CF8E500F
:10052000806480937C0080917A00806480937A005C
:1005300080917A0086FDFCCF8091780090917900BF
:1005400008953FB7F8948091C7019091C801A09198
:10055000C901B091CA0126B5A89B05C02F3F19F06B
:100560000196A11DB11D3FBFBA2FA92F982F882733
:10057000BC01CD01620F711D811D911D42E0660F0E
:10058000771F881F991F4A95D1F70895FC010190A4
:100590000020E9F73197AF01481B590BBC0180EEF1
:1005A00091E00C94A5008F929F92AF92BF920F930F
:1005B0001F93CF93DF93CDB7DEB7A1970FB6F89413
:1005C000DEBF0FBECDBF19A2423008F44AE08E0153
:1005D0000F5D1F4F842E912CB12CA12CA5019401ED
:1005E0000E94420BE62FB901CA01EA30F4F4E05D43
:1005F000D801EE938D01232B242B252B79F790E046
:1006000080E0109719F0CD010E94C602A1960FB6A6
:10061000F894DEBF0FBECDBFDF91CF911F910F9138
:10062000BF90AF909F908F900895E95CE1CFCF92FB
:10063000DF92EF92FF92CF93DF936C01990FEE0858
:10064000FF08F7FE1FC06DE280EE91E00E944501B9
:10065000EC0166277727CB016C197D098E099F096C
:100660004AE00E94D302C80FD91F89E191E00E949D
:10067000C6028C0F9D1FDF91CF91FF90EF90DF900E
:10068000CF9008954AE0C701B6010E94D302EC0161
:10069000ECCF4F925F926F927F928F929F92AF9228
:1006A000BF92CF92DF92EF92FF920F931F93CF935F
:1006B0006B017C01742EAC019B010E943D0B8823D1
:1006C00099F08CE191E0CF911F910F91FF90EF9005
:1006D000DF90CF90BF90AF909F908F907F906F9062
:1006E0005F904F900C94C60246015701E894B7F80A
:1006F0002FEF3FEF4FE75FE7C501B4010E943D0BCD
:1007000081110DC02FEF3FEF4FE75FE7C501B40147
:100710000E94CF0818161CF480E291E0D4CF2FEF8E
:100720003FEF4FE75FE4C701B6010E94380B181690
:100730001CF484E291E0C7CF2FEF3FEF4FE75FEC6F
:10074000C701B6010E94CF0887FDF3CF20E030E05B
:10075000A901C701B6010E94CF0810E000E087FFA1
:100760000AC06DE280EE91E00E9445018C01F7FA2B
:10077000F094F7F8F094C0E060E070E080E09FE370
:100780007C1641F020E030E040E251E40E94970AFC
:10079000CF5FF6CFA70196010E942B0A2B013C01E7
:1007A0000E94090B4B015C014AE00E94D3027C01CC
:1007B000E00EF11ECC23C1F1C501B4010E94D408A2
:1007C0009B01AC01C301B2010E942A0A4B015C01EA
:1007D0006EE280EE91E00E944501E80EF91EC150E4
:1007E00018F120E030E040E251E4C501B4010E947C
:1007F00035092B013C010E94090B4B01B12CA12CA6
:100800004AE0C501B4010E94D302E80EF91EC501F9
:10081000B4010E94D4089B01AC01C301B2010E9443
:100820002A0A4B015C01DBCFC701CF911F910F91C9
:10083000FF90EF90DF90CF90BF90AF909F908F9000
:100840007F906F905F904F900895FC01808191811F
:10085000009711F00C94060C08950F931F93CF93FB
:10086000DF93EC0188819981009759F02A813B81BF
:100870002617370730F081E0DF91CF911F910F915C
:1008800008958B016F5F7F4F0E948F0C009759F086
:10089000998388831B830A832C813D81232B59F7FD
:1008A000FC011082E8CF80E0E7CFCF93DF93EC012B
:1008B000198218821B821A821D821C8270E060E0FD
:1008C0000E942D042881398181110FC02115310525
:1008D00019F0C9010E94060C198218821D821C821F
:1008E0001B821A82DF91CF9108951D821C826BE1D9
:1008F00071E0C901DF91CF910C94550DEF92FF92F9
:100900000F931F93CF93DF93EC017B01FB010190C9
:100910000020E9F731978F01061B170BB8010E94E1
:100920002D0428813981811113C02115310519F059
:10093000C9010E94060C198218821D821C821B822A
:100940001A82DF91CF911F910F91FF90EF90089540
:100950001D830C83B701C901DF91CF911F910F91C6
:10096000FF90EF900C94550D1F920F920FB60F92BF
:1009700011242F933F934F935F936F937F938F93A4
:100980009F93AF93BF93EF93FF938091D00190918A
:10099000D101A091D201B091D301892B8A2B8B2B4D
:1009A000D1F19091CB01E091CC01F091CD0180810A
:1009B000892780838091D0019091D101A091D201AB
:1009C000B091D301181619061A061B069CF48091E3
:1009D000D0019091D101A091D201B091D3010197A2
:1009E000A109B1098093D0019093D101A093D201C4
:1009F000B093D301FF91EF91BF91AF919F918F91F0
:100A00007F916F915F914F913F912F910F900FBE0A
:100A10000F901F901895809100010E943202EACF3A
:100A20001F920F920FB60F9211242F933F934F9363
:100A30005F936F937F938F939F93AF93BF93EF9346
:100A4000FF9380EE91E00E942301FF91EF91BF910F
:100A5000AF919F918F917F916F915F914F913F9156
:100A60002F910F900FBE0F901F9018951F920F920D
:100A70000FB60F9211242F938F939F93EF93FF93B1
:100A8000E091F001F091F1018081E091F601F091A7
:100A9000F70182FD1BC090818091F9018F5F8F73F8
:100AA0002091FA01821741F0E091F901F0E0E05263
:100AB000FE4F958F8093F901FF91EF919F918F9158
:100AC0002F910F900FBE0F901F9018958081F4CF3B
:100AD0001F920F920FB60F9211242F933F938F9373
:100AE0009F93AF93BF938091C3019091C401A09154
:100AF000C501B091C6013091C20123E0230F2D370B
:100B000058F50196A11DB11D2093C2018093C30128
:100B10009093C401A093C501B093C6018091C70111
:100B20009091C801A091C901B091CA010196A11D7F
:100B3000B11D8093C7019093C801A093C901B093E0
:100B4000CA01BF91AF919F918F913F912F910F90CB
:100B50000FBE0F901F90189526E8230F0296A11D37
:100B6000B11DD2CFE0EEF1E01382128288EE93E065
:100B7000A0E0B0E084839583A683B7838BE091E007
:100B80009183808385EC90E09587848784EC90E066
:100B90009787868780EC90E0918B808B81EC90E04A
:100BA000938B828B82EC90E0958B848B86EC90E02B
:100BB000978B868B118E128E138E148E8FE892E097
:100BC0000E94550489E892E00E94550483E892E06F
:100BD0000E9455048DE792E00C945504789484B5F6
:100BE000826084BD84B5816084BD85B5826085BD29
:100BF00085B5816085BD80916E00816080936E00B7
:100C000010928100809181008260809381008091A8
:100C10008100816080938100809180008160809359
:100C200080008091B10084608093B1008091B00019
:100C300081608093B00080917A00846080937A0014
:100C400080917A00826080937A0080917A0081603E
:100C500080937A0080917A00806880937A00109265
:100C6000C10060E087E00E945E0260E081E10E94D6
:100C70005E0260E08FE00E945E0260E08EE00E9413
:100C80005E0261E083E00E945E0261E084E00E9417
:100C90005E0261E085E00E945E0261E08CE00E94FD
:100CA0005E0261E08DE00E945E02E091F001F09151
:100CB000F10182E08083E091EC01F091ED0110827E
:100CC000E091EE01F091EF018FEC80831092F8013A
:100CD000E091F401F091F50186E08083E091F2016A
:100CE000F091F301808180618083E091F201F091C5
:100CF000F301808188608083E091F201F091F3013B
:100D0000808180688083E091F201F091F30180811D
:100D10008F7D808345E9242E40E0342E44244A947C
:100D2000542C32010E94A1024B015C0138ECC32E0D
:100D3000D12CE12CF12C0E94A102681979098A09B1
:100D40009B09683E734081059105A8F321E0C21A12
:100D5000D108E108F10888EE880E83E0981EA11CF6
:100D6000B11CC114D104E104F10429F787E00E9409
:100D7000DB018C0181E10E94DB01EC018FE00E942C
:100D80008F02BC01990F880B990B0E94D60820E0B6
:100D900030E040E85AE30E94350920E030E04AEFB5
:100DA00053E40E9435096B017C018EE00E948F02A2
:100DB000BC01990F880B990B0E94D60820E030E007
:100DC00040E85AE30E94350921ED32E24BE15EE34F
:100DD0000E942A0A2CE837E640ED5BE30E94970A5E
:100DE0004B015C0129EC3EE84DE05BE3C701B60135
:100DF0000E9435099B01AC0162E27DEF86E89FE32A
:100E00000E942A0A9B01AC01C501B4010E94970A05
:100E10004B015C01B801012E000C880B990B0E945C
:100E2000D6089B01AC010E943D0B81111DC0BE0183
:100E30000D2E000C880B990B0E94D6089B01AC016B
:100E40000E943D0B811110C0A7019601C701B60198
:100E50000E943D0B811108C0A5019401C501B40198
:100E60000E943D0B8823F1F0C3ECD0E0FE016491B9
:100E7000662339F080EE91E00E9445012196892B8E
:100E8000A9F789E191E00E94C602E0E0F0E0EF2BD3
:100E900009F448CF0E940F01882309F443CF0E9430
:100EA000000040CF012B21F568E271E089E892E073
:100EB0000E947E0463E471E083E892E00E947E0475
:100EC00061E571E08DE792E00E947E041092DF01FF
:100ED0001092DE0160E083E00E94040261E084E0A1
:100EE0000E94040260E08CE00E94040260E02FC0D7
:100EF0006DE571E089E892E00E947E046FE671E0A2
:100F000083E892E00E947E0481E090E09093DF010C
:100F10008093DE0161E083E00E94040260E084E0EF
:100F20000E94040261E08CE00E94040220E030E0B4
:100F300048EC51E4C701B6010E94380B87FD42C05E
:100F40006CE771E08DE792E00E947E0461E08DE045
:100F50000E940402C130D10509F006C163E971E0C5
:100F60008FE892E00E947E04D093DD01C093DC0103
:100F700080910001853069F5E2ECF0E0C491C7FD95
:100F8000C9C061E085E00E945E02CC2309F493C0F1
:100F9000C23009F0A4C08091B100887F8660809340
:100FA000B1008BE98093B3004092D0015092D101FF
:100FB0006092D2017092D301809170008260809320
:100FC0007000A8C067E871E08DE792E00E947E049F
:100FD0008DCF8F3F09F09EC085E080930001E2EC49
:100FE000F0E0C491CF3F09F495C0C13021F150F039
:100FF000C23009F43EC0C7FD8DC061E085E00E94AB
:101000005E02C6CF14BC15BC84B5826084BD85B5B4
:10101000816085BDE3EBF0E08491E82FF0E0EE0F16
:10102000FF1FEC55FF4F85919491F10184918093BE
:10103000CF01C0E0A6CF1092800010928100809175
:10104000810088608093810080918100816080931D
:101050008100E3EBF0E08491E82FF0E0EE0FFF1F5A
:10106000EC55FF4F85919491F10184918093CE01CD
:1010700088CF1092B0001092B1008091B0008260D1
:101080008093B0008091B10081608093B100E3EB68
:10109000F0E08491E82FF0E0EE0FFF1FEC55FF4FDA
:1010A000859194919093CD018093CC01F10184912D
:1010B0008093CB0166CF85B5887F846085BD8BE941
:1010C00087BD4092D8015092D9016092DA017092A6
:1010D000DB0180916E00826080936E001BC0C13086
:1010E000D9F580918100887F8160809381008FE3B2
:1010F0009CE990938900809388004092D40150929B
:10110000D5016092D6017092D70180916F00826004
:1011100080936F0085E00E94320242E0C701B60171
:101120000E94490389E191E00E94C6028091DC019E
:101130009091DD010E94170342E0C501B4010E94B5
:10114000490389E191E00E94C6028091DE019091FD
:10115000DF010E94170395CEC23021F0C111DACF12
:101160008FE3AECF8FE31ECF6FEA71E08FE892E09E
:101170000E947E041092DD011092DC01CECF8DE73B
:1011800092E00E94250483E892E00E94250489E809
:1011900092E00E9425048FE892E00C9425040E94BE
:1011A000110908F481E00895E89409C097FB3EF422
:1011B00090958095709561957F4F8F4F9F4F9923A4
:1011C000A9F0F92F96E9BB279395F6958795779522
:1011D0006795B795F111F8CFFAF4BB0F11F460FFE2
:1011E0001BC06F5F7F4F8F4F9F4F16C0882311F03A
:1011F00096E911C0772321F09EE8872F762F05C04E
:10120000662371F096E8862F70E060E02AF09A95E8
:10121000660F771F881FDAF7880F9695879597F9DD
:101220000895990F0008550FAA0BE0E8FEEF161677
:101230001706E807F907C0F012161306E407F507CA
:1012400098F0621B730B840B950B39F40A2661F03E
:10125000232B242B252B21F408950A2609F4A140E1
:10126000A6958FEF811D811D08950E9448090C9459
:10127000B9090E94AB0938F00E94B20920F0952309
:1012800011F00C94A2090C94A80911240C94ED09F6
:101290000E94CA0970F3959FC1F3950F50E0551F46
:1012A000629FF001729FBB27F00DB11D639FAA27BB
:1012B000F00DB11DAA1F649F6627B00DA11D661F0A
:1012C000829F2227B00DA11D621F739FB00DA11D2B
:1012D000621F839FA00D611D221F749F3327A00DE5
:1012E000611D231F849F600D211D822F762F6A2F81
:1012F00011249F5750409AF0F1F088234AF0EE0FE6
:10130000FF1FBB1F661F771F881F91505040A9F712
:101310009E3F510580F00C94A2090C94ED095F3FAB
:10132000E4F3983ED4F3869577956795B795F7954E
:10133000E7959F5FC1F7FE2B880F911D96958795C6
:1013400097F9089597F99F6780E870E060E0089545
:101350009FEF80EC089500240A94161617061806CD
:101360000906089500240A941216130614060506A9
:101370000895092E0394000C11F4882352F0BB0F3A
:1013800040F4BF2B11F460FF04C06F5F7F4F8F4F9D
:101390009F4F089557FD9058440F551F59F05F3FD8
:1013A00071F04795880F97FB991F61F09F3F79F087
:1013B00087950895121613061406551FF2CF469509
:1013C000F1DF08C0161617061806991FF1CF86958B
:1013D0007105610508940895E894BB27662777276F
:1013E000CB0197F908952F923F924F925F926F929F
:1013F0007F928F929F92AF92BF92CF92DF92EF92A5
:10140000FF920F931F93CF93DF93CDB7DEB7CA1B25
:10141000DB0B0FB6F894DEBF0FBECDBF09942A8850
:10142000398848885F846E847D848C849B84AA84F8
:10143000B984C884DF80EE80FD800C811B81AA8185
:10144000B981CE0FD11D0FB6F894DEBF0FBECDBF50
:10145000ED0108955058BB27AA270E94420A0C9418
:10146000B9090E94AB0938F00E94B20920F039F4A2
:101470009F3F19F426F40C94A8090EF4E095E7FBBD
:101480000C94A209E92F0E94CA0958F3BA176207FF
:1014900073078407950720F079F4A6F50C94EC09FE
:1014A0000EF4E0950B2EBA2FA02D0B01B90190017F
:1014B0000C01CA01A0011124FF27591B99F0593FC3
:1014C00050F4503E68F11A16F040A22F232F342F0B
:1014D0004427585FF3CF469537952795A795F04059
:1014E0005395C9F77EF41F16BA0B620B730B840B6E
:1014F000BAF09150A1F0FF0FBB1F661F771F881F26
:10150000C2F70EC0BA0F621F731F841F48F487957D
:1015100077956795B795F7959E3F08F0B0CF93956F
:10152000880F08F09927EE0F9795879508950E94E8
:10153000AB0A0C94B9090E94B20958F00E94AB0999
:1015400040F029F45F3F29F00C94A20951110C944A
:10155000ED090C94A8090E94CA0968F39923B1F314
:10156000552391F3951B550BBB27AA2762177307C9
:10157000840738F09F5F5F4F220F331F441FAA1F5D
:10158000A9F335D00E2E3AF0E0E832D09150504019
:10159000E695001CCAF72BD0FE2F29D0660F771FC7
:1015A000881FBB1F261737074807AB07B0E809F0AD
:1015B000BB0B802DBF01FF2793585F4F3AF09E3F32
:1015C000510578F00C94A2090C94ED095F3FE4F307
:1015D000983ED4F3869577956795B795F7959F5F75
:1015E000C9F7880F911D9695879597F90895E1E0C1
:1015F000660F771F881FBB1F621773078407BA0720
:1016000020F0621B730B840BBA0BEE1F88F7E0957A
:1016100008950E94D20988F09F5798F0B92F992712
:10162000B751B0F0E1F0660F771F881F991F1AF0CD
:10163000BA95C9F714C0B13091F00E94EC09B1E03D
:1016400008950C94EC09672F782F8827B85F39F03C
:10165000B93FCCF3869577956795B395D9F73EF466
:1016600090958095709561957F4F8F4F9F4F08950E
:101670000E94110908F48FEF08950E941109880B48
:10168000990B0895A1E21A2EAA1BBB1BFD010DC0E8
:10169000AA1FBB1FEE1FFF1FA217B307E407F50722
:1016A00020F0A21BB30BE40BF50B661F771F881FFE
:1016B000991F1A9469F760957095809590959B0194
:1016C000AC01BD01CF010895EE0FFF1F0590F4910D
:1016D000E02D09940F931F93CF93DF9382309105F0
:1016E00010F482E090E0E0919702F091980230E0EF
:1016F00020E0B0E0A0E0309799F42115310509F41D
:101700004AC0281B390B24303105D8F58A819B81CA
:101710006115710589F1FB0193838283FE0111C07C
:10172000408151810281138148175907E0F0481721
:10173000590799F4109761F012960C93129713962B
:101740001C933296CF01DF91CF911F910F91089595
:101750000093970210939802F4CF2115310551F0B0
:101760004217530738F0A901DB019A01BD01DF01DF
:10177000F801C1CFEF01F9CF9093980280939702BF
:10178000CDCFFE01E20FF31F8193919322503109D7
:1017900039832883D7CF2091950230919602232B4D
:1017A00041F420910301309104013093960220937B
:1017B000950220910101309102012115310541F47A
:1017C0002DB73EB74091050150910601241B350B02
:1017D000E0919502F0919602E217F307A0F42E1B18
:1017E0003F0B2817390778F0AC014E5F5F4F241785
:1017F000350748F04E0F5F1F5093960240939502B5
:10180000819391939FCFF0E0E0E09CCFCF93DF9363
:101810000097E9F0FC01329713821282A09197029F
:10182000B0919802ED0130E020E01097A1F4208102
:101830003181820F931F20919502309196022817D3
:10184000390709F061C0F0939602E0939502DF91A9
:10185000CF910895EA01CE17DF07E8F54A815B8151
:101860009E0141155105B1F7E901FB83EA834991D6
:101870005991C40FD51FEC17FD0761F48081918148
:101880000296840F951FE901998388838281938151
:101890009B838A83F0E0E0E012968D919C911397F0
:1018A0000097B9F52D913C911197CD010296820FC9
:1018B000931F20919502309196022817390739F627
:1018C000309751F51092980210929702B0939602B9
:1018D000A0939502BCCFD383C28340815181840FF2
:1018E000951FC817D90761F44E5F5F4F88819981B2
:1018F000480F591F518340838A819B819383828340
:101900002115310509F0B0CFF0939802E0939702CA
:101910009ECFFD01DC01C0CF13821282D7CFB0E091
:10192000A0E0E5E9FCE00C94F5098C01009751F486
:10193000CB010E946A0B8C01C801CDB7DEB7E0E194
:101940000C94110AFC01E60FF71F9C01225031098B
:10195000E217F30708F49DC0D901CD91DC911197EE
:10196000C617D70798F0C530D10530F3CE010497DC
:101970008617970708F3C61BD70B2297C193D193FD
:101980006D937C93CF010E94060CD6CF5B01AC1AFD
:10199000BD0A4C018C0E9D1EA0919702B091980239
:1019A000512C412CF12CE12C109731F580919502AE
:1019B000909196028815990509F05CC04616570665
:1019C00008F058C08091010190910201009741F404
:1019D0008DB79EB74091050150910601841B950B70
:1019E000E817F90708F055C0F0939602E0939502C6
:1019F000F90171836083A0CF8D919C91119712960C
:101A00006C90129713967C901397A815B90559F509
:101A10006C0142E0C40ED11CCA14DB0420F1AC01FD
:101A20004A195B09DA011296159780F06282738277
:101A300051834083D9016D937C93E114F10471F0DB
:101A4000D7011396FC93EE93129776CF22968C0FC4
:101A50009D1FF90191838083F301EFCFF0939802EA
:101A6000E093970269CF4816590608F42C017D01CE
:101A7000D3019ACFCB010E946A0B7C01009749F0F9
:101A8000AE01B8010E944C0DC8010E94060C8701EE
:101A900053CF10E000E050CFFB01DC0102C0019009
:101AA0000D9241505040D8F70895FB01DC010190A0
:101AB0000D920020E1F7089510E0CAE7D0E004C0DD
:101AC000FE010E94640B2196CB37D107C9F7F89429
:021AD000FFCF46
:101AD200FF000099028000000000004501A500D22D
:101AE2000092010301E100F5000D0A006E616E0033
:101AF200696E66006F766600546865726520697368
:101B0200206E6F2068756D616E20696E20726F6F36
:101B12006D2E004C69676874206973206F66662EAB
:101B22000046616E206973206F66662E0048756DEF
:101B3200616E2069732070726573656E742E004C3D
:101B420069676874206973206F6E2E0046616E208B
:101B52006973206F6E2E0046616E206973204F6696
:101B6200662E00536D6F6B65204465746563746502
:101B7200642E204669726520416C65727421004EA4
:101B82006F20736D6F6B6520646574656374656443
:021B92002E0023
:00000001FF
